{
  "address": "0xaeDA4710e068c5f53Dfb8303576BEF327697EDB0",
  "abi": [
    {
      "anonymous": false,
      "inputs": [
        {
          "indexed": true,
          "internalType": "uint256",
          "name": "gameId",
          "type": "uint256"
        },
        {
          "indexed": true,
          "internalType": "address",
          "name": "team1",
          "type": "address"
        },
        {
          "indexed": true,
          "internalType": "address",
          "name": "team2",
          "type": "address"
        }
      ],
      "name": "GameAccepted",
      "type": "event"
    },
    {
      "anonymous": false,
      "inputs": [
        {
          "indexed": true,
          "internalType": "uint256",
          "name": "gameId",
          "type": "uint256"
        },
        {
          "indexed": true,
          "internalType": "address",
          "name": "player1",
          "type": "address"
        },
        {
          "indexed": true,
          "internalType": "address",
          "name": "player2",
          "type": "address"
        },
        {
          "indexed": false,
          "internalType": "uint256",
          "name": "bet",
          "type": "uint256"
        }
      ],
      "name": "GameCreated",
      "type": "event"
    },
    {
      "anonymous": false,
      "inputs": [
        {
          "indexed": true,
          "internalType": "uint256",
          "name": "gameId",
          "type": "uint256"
        },
        {
          "indexed": true,
          "internalType": "address",
          "name": "winner",
          "type": "address"
        },
        {
          "indexed": false,
          "internalType": "enum TicTacToe.GameState",
          "name": "state",
          "type": "uint8"
        }
      ],
      "name": "GameFinished",
      "type": "event"
    },
    {
      "anonymous": false,
      "inputs": [
        {
          "indexed": true,
          "internalType": "uint256",
          "name": "gameId",
          "type": "uint256"
        },
        {
          "indexed": true,
          "internalType": "address",
          "name": "player",
          "type": "address"
        },
        {
          "indexed": false,
          "internalType": "uint8",
          "name": "position",
          "type": "uint8"
        }
      ],
      "name": "MoveMade",
      "type": "event"
    },
    {
      "inputs": [
        {
          "internalType": "uint256",
          "name": "_gameId",
          "type": "uint256"
        }
      ],
      "name": "acceptGame",
      "outputs": [],
      "stateMutability": "payable",
      "type": "function"
    },
    {
      "inputs": [
        {
          "internalType": "address",
          "name": "_player2",
          "type": "address"
        }
      ],
      "name": "createGame",
      "outputs": [],
      "stateMutability": "payable",
      "type": "function"
    },
    {
      "inputs": [],
      "name": "gameIdCounter",
      "outputs": [
        {
          "internalType": "uint256",
          "name": "",
          "type": "uint256"
        }
      ],
      "stateMutability": "view",
      "type": "function"
    },
    {
      "inputs": [
        {
          "internalType": "uint256",
          "name": "",
          "type": "uint256"
        }
      ],
      "name": "games",
      "outputs": [
        {
          "internalType": "address",
          "name": "player1",
          "type": "address"
        },
        {
          "internalType": "address",
          "name": "player2",
          "type": "address"
        },
        {
          "internalType": "enum TicTacToe.GameState",
          "name": "state",
          "type": "uint8"
        },
        {
          "internalType": "uint256",
          "name": "bet",
          "type": "uint256"
        },
        {
          "internalType": "bool",
          "name": "player1Withdrawn",
          "type": "bool"
        },
        {
          "internalType": "bool",
          "name": "player2Withdrawn",
          "type": "bool"
        },
        {
          "internalType": "uint8",
          "name": "moves",
          "type": "uint8"
        }
      ],
      "stateMutability": "view",
      "type": "function"
    },
    {
      "inputs": [
        {
          "internalType": "uint256",
          "name": "_gameId",
          "type": "uint256"
        }
      ],
      "name": "getBoard",
      "outputs": [
        {
          "internalType": "uint8[9]",
          "name": "",
          "type": "uint8[9]"
        }
      ],
      "stateMutability": "view",
      "type": "function"
    },
    {
      "inputs": [
        {
          "internalType": "uint256",
          "name": "_gameId",
          "type": "uint256"
        }
      ],
      "name": "getCurrentPlayer",
      "outputs": [
        {
          "internalType": "uint8",
          "name": "",
          "type": "uint8"
        }
      ],
      "stateMutability": "view",
      "type": "function"
    },
    {
      "inputs": [
        {
          "internalType": "uint256",
          "name": "_gameId",
          "type": "uint256"
        }
      ],
      "name": "getGameState",
      "outputs": [
        {
          "internalType": "enum TicTacToe.GameState",
          "name": "",
          "type": "uint8"
        }
      ],
      "stateMutability": "view",
      "type": "function"
    },
    {
      "inputs": [
        {
          "internalType": "uint256",
          "name": "_gameId",
          "type": "uint256"
        }
      ],
      "name": "getNumberOfMoves",
      "outputs": [
        {
          "internalType": "uint8",
          "name": "",
          "type": "uint8"
        }
      ],
      "stateMutability": "view",
      "type": "function"
    },
    {
      "inputs": [
        {
          "internalType": "uint256",
          "name": "_gameId",
          "type": "uint256"
        }
      ],
      "name": "hasPlayer1WithdrawnPrize",
      "outputs": [
        {
          "internalType": "bool",
          "name": "",
          "type": "bool"
        }
      ],
      "stateMutability": "view",
      "type": "function"
    },
    {
      "inputs": [
        {
          "internalType": "uint256",
          "name": "_gameId",
          "type": "uint256"
        }
      ],
      "name": "hasPlayer2WithdrawnPrize",
      "outputs": [
        {
          "internalType": "bool",
          "name": "",
          "type": "bool"
        }
      ],
      "stateMutability": "view",
      "type": "function"
    },
    {
      "inputs": [
        {
          "internalType": "uint256",
          "name": "_gameId",
          "type": "uint256"
        },
        {
          "internalType": "uint8",
          "name": "position",
          "type": "uint8"
        }
      ],
      "name": "makeMove",
      "outputs": [],
      "stateMutability": "nonpayable",
      "type": "function"
    },
    {
      "inputs": [
        {
          "internalType": "uint256",
          "name": "_gameId",
          "type": "uint256"
        }
      ],
      "name": "withdrawPrize",
      "outputs": [],
      "stateMutability": "nonpayable",
      "type": "function"
    }
  ],
  "transactionHash": "0x7720854691116c769ffc9d66fe9442df4375551aff26631260891552ec0f08ea",
  "args": [],
  "numDeployments": 1,
  "solcInputHash": "d4dcd32d332517c5dffeb0e1e61ef658",
  "bytecode": "0x60806040526000805534801561001457600080fd5b50611a34806100246000396000f3fe6080604052600436106100a75760003560e01c80637fd6f7c4116100645780637fd6f7c4146101e2578063986ac87914610202578063b8b357d914610245578063c20eec7b14610278578063cb310db614610298578063ffde0c74146102d057600080fd5b8063117a5b90146100ac5780631bb412d614610137578063266386311461015b57806345e09e541461018d578063474d0b5a146101ba578063605bd5ff146101cf575b600080fd5b3480156100b857600080fd5b5061011b6100c736600461174d565b6001602081905260009182526040909120805491810154600282015460038301546005909301546001600160a01b039485169483169360ff600160a01b909404841693818116926101009092048116911687565b60405161012e979695949392919061179e565b60405180910390f35b34801561014357600080fd5b5061014d60005481565b60405190815260200161012e565b34801561016757600080fd5b5061017b61017636600461174d565b610318565b60405160ff909116815260200161012e565b34801561019957600080fd5b506101ad6101a836600461174d565b610351565b60405161012e91906117eb565b6101cd6101c8366004611820565b6103ba565b005b6101cd6101dd36600461174d565b610651565b3480156101ee57600080fd5b506101cd6101fd366004611850565b6108f7565b34801561020e57600080fd5b5061023561021d36600461174d565b60009081526001602052604090206003015460ff1690565b604051901515815260200161012e565b34801561025157600080fd5b5061017b61026036600461174d565b60009081526001602052604090206005015460ff1690565b34801561028457600080fd5b506101cd61029336600461174d565b610d2f565b3480156102a457600080fd5b506102356102b336600461174d565b600090815260016020526040902060030154610100900460ff1690565b3480156102dc57600080fd5b5061030b6102eb36600461174d565b60009081526001602081905260409091200154600160a01b900460ff1690565b60405161012e9190611886565b6000818152600160205260408120600501546103399060029060ff166118aa565b60ff161561034857600261034b565b60015b92915050565b610359611686565b6000828152600160205260408082208151610120810192839052926004909101916009918390855b825461010083900a900460ff16815260206001928301818104948501949093039092029101808411610381575094979650505050505050565b336001600160a01b038216036104265760405162461bcd60e51b815260206004820152602660248201527f596f752063616e2774206368616c6c656e676520796f75722073616d6520616460448201526564726573732160d01b60648201526084015b60405180910390fd5b6001600160a01b03811661048a5760405162461bcd60e51b815260206004820152602560248201527f596f752063616e2774206368616c6c656e676520746865207a65726f20616464604482015264726573732160d81b606482015260840161041d565b600080549080610499836118e2565b909155505060408051610100810182523381526001600160a01b03831660208201529081016000815234602080830191909152600060408084018290526060808501839052815161012081018352838152808501849052808301849052908101839052608081810184905260a080830185905260c0830185905260e0830185905261010083018590529086019190915290930181905280548152600180835290839020845181546001600160a01b039182166001600160a01b03199182161783559386015192820180549390911693831684178155938501519093909290916001600160a81b03191617600160a01b83600481111561059a5761059a611766565b021790555060608201516002820155608082015160038201805460a085015115156101000261ff00199315159390931661ffff199091161791909117905560c08201516105ed90600483019060096116a5565b5060e091909101516005909101805460ff191660ff9092169190911790556000546040513481526001600160a01b0383169133917f6200407c0ea392b8107b21a9be480acd41fda186d04bed28cc7da2d4b53d56e29060200160405180910390a450565b600081815260016020818152604080842081516101008101835281546001600160a01b0390811682529482015494851693810193909352919290830190600160a01b900460ff1660048111156106a9576106a9611766565b60048111156106ba576106ba611766565b815260028201546020820152600382015460ff808216151560408085019190915261010090920416151560608301528051610120810191829052608090920191906004840190600990826000855b825461010083900a900460ff1681526020600192830181810494850194909303909202910180841161070857905050505091835250506005919091015460ff166020918201528101519091506001600160a01b031633146107ab5760405162461bcd60e51b815260206004820152601e60248201527f596f75206d75737420626520706c61796572203220746f206163636570740000604482015260640161041d565b6000816040015160048111156107c3576107c3611766565b1461081c5760405162461bcd60e51b815260206004820152602360248201527f47616d65206d7573742062652050454e44494e4720746f2062652061636365706044820152621d195960ea1b606482015260840161041d565b348160600151146108835760405162461bcd60e51b815260206004820152602b60248201527f596f7520686176656e27742073656e742074686520726571756972656420455460448201526a12081d1bc81858d8d95c1d60aa1b606482015260840161041d565b60008281526001602081905260409091208101805460ff60a01b1916600160a01b83021790555080602001516001600160a01b031681600001516001600160a01b0316837f2f9392ce1a0e65c06e3d53069c2c20e0fdaf138f3b3782ff1f3d1be6493cc0e060405160405180910390a45050565b600082815260016020818152604080842081516101008101835281546001600160a01b039081168252948201549485169381019390935286948694909392830190600160a01b900460ff16600481111561095357610953611766565b600481111561096457610964611766565b815260028201546020820152600382015460ff808216151560408085019190915261010090920416151560608301528051610120810191829052608090920191906004840190600990826000855b825461010083900a900460ff168152602060019283018181049485019490930390920291018084116109b2575050509284525050506005919091015460ff1660209091015290506000610a0484610318565b82519091506001600160a01b0316331480610a34575081602001516001600160a01b0316336001600160a01b0316145b610a6f5760405162461bcd60e51b815260206004820152600c60248201526b2737ba103090383630bcb2b960a11b604482015260640161041d565b81516001600160a01b031633148015610a8b57508060ff166001145b80610ab9575081602001516001600160a01b0316336001600160a01b0316148015610ab957508060ff166002145b610af55760405162461bcd60e51b815260206004820152600d60248201526c2737ba103cb7bab9103a3ab93760991b604482015260640161041d565b60098360ff1610610b3d5760405162461bcd60e51b8152602060048201526012602482015271141bdcda5d1a5bdb881b9bdd081d985b1a5960721b604482015260640161041d565b600182604001516004811115610b5557610b55611766565b14610bb05760405162461bcd60e51b815260206004820152602560248201527f47616d65206861736e27742073746172746564206f7220616c726561647920656044820152646e6465642160d81b606482015260840161041d565b8160c001518360ff1660098110610bc957610bc96118fb565b602002015160ff1615610c135760405162461bcd60e51b8152602060048201526012602482015271506f736974696f6e206e6f7420656d70747960701b604482015260640161041d565b600086815260016020526040812060050154610c349060029060ff166118aa565b60ff1615610c43576002610c46565b60015b6000888152600160205260409020909150819060040160ff881660098110610c7057610c706118fb565b6020808204909201805460ff948516601f9093166101000a9283029285021916919091179055600089815260019091526040812060050180549092169190610cb783611911565b91906101000a81548160ff021916908360ff16021790555050336001600160a01b0316877f2e609ae07cc76b1b2b76d7ada4250d5191a8eb5eb7e19181c23c5da8e9643ad188604051610d13919060ff91909116815260200190565b60405180910390a3610d26878733611046565b50505050505050565b600081815260016020526040902060026001820154600160a01b900460ff166004811115610d5f57610d5f611766565b1480610d8a575060036001820154600160a01b900460ff166004811115610d8857610d88611766565b145b80610db4575060046001820154600160a01b900460ff166004811115610db257610db2611766565b145b610e105760405162461bcd60e51b815260206004820152602760248201527f496e76616c69642067616d6520737461746520666f72207072697a65207769746044820152661a191c985dd85b60ca1b606482015260840161041d565b60026001820154600160a01b900460ff166004811115610e3257610e32611766565b148015610e48575080546001600160a01b031633145b15610e8257600381015460ff1615610e725760405162461bcd60e51b815260040161041d90611930565b60038101805460ff191660011790555b60036001820154600160a01b900460ff166004811115610ea457610ea4611766565b148015610ebd575060018101546001600160a01b031633145b15610efe576003810154610100900460ff1615610eec5760405162461bcd60e51b815260040161041d90611930565b60038101805461ff0019166101001790555b60046001820154600160a01b900460ff166004811115610f2057610f20611766565b03610fbf5780546001600160a01b03163303610f6f57600381015460ff1615610f5b5760405162461bcd60e51b815260040161041d90611930565b60038101805460ff19166001179055610fbf565b60018101546001600160a01b03163303610fbf576003810154610100900460ff1615610fad5760405162461bcd60e51b815260040161041d90611930565b60038101805461ff0019166101001790555b6000610fca836113e4565b9050600081116110135760405162461bcd60e51b8152602060048201526014602482015273125b9d985b1a59081c1c9a5e9948185b5bdd5b9d60621b604482015260640161041d565b604051339082156108fc029083906000818181858888f19350505050158015611040573d6000803e3d6000fd5b50505050565b600083815260016020818152604080842081516101008101835281546001600160a01b0390811682529482015494851693810193909352919290830190600160a01b900460ff16600481111561109e5761109e611766565b60048111156110af576110af611766565b815260028201546020820152600382015460ff808216151560408085019190915261010090920416151560608301528051610120810191829052608090920191906004840190600990826000855b825461010083900a900460ff168152602060019283018181049485019490930390920291018084116110fd575050509284525050506005919091015460ff90811660209092019190915260e082015191925016600903611162576111628460006114d9565b6000848152600160205260408120600501546111839060029060ff166118aa565b60ff1615611192576001611195565b60025b905060006111a4600386611975565b905060006111b36003876118aa565b90508260ff168460c001518360036111cb9190611997565b60ff16600981106111de576111de6118fb565b602002015160ff1614801561122b575060c084015160ff841690611203846003611997565b61120e9060016119ba565b60ff1660098110611221576112216118fb565b602002015160ff16145b801561126f575060c084015160ff841690611247846003611997565b6112529060026119ba565b60ff1660098110611265576112656118fb565b602002015160ff16145b1561127e5761127e87866114d9565b8260ff168460c001518260ff166009811061129b5761129b6118fb565b602002015160ff161480156112dd575060c084015160ff8416906112c08360036119ba565b60ff16600981106112d3576112d36118fb565b602002015160ff16145b8015611316575060c084015160ff8416906112f98360066119ba565b60ff166009811061130c5761130c6118fb565b602002015160ff16145b156113255761132587866114d9565b8060ff168260ff161480611345575061133e81836119ba565b60ff166002145b80156113d5575060c08401515160ff8481169116148015611373575060c08401516080015160ff8481169116145b801561138d575060c0840151610100015160ff8481169116145b806113d5575060c08401516040015160ff84811691161480156113bd575060c08401516080015160ff8481169116145b80156113d5575060c084810151015160ff8481169116145b15610d2657610d2687866114d9565b6000818152600160205260408120600280820154839161140491906119d3565b905060026001830154600160a01b900460ff16600481111561142857611428611766565b03611434579392505050565b60036001830154600160a01b900460ff16600481111561145657611456611766565b03611462579392505050565b60046001830154600160a01b900460ff16600481111561148457611484611766565b0361149c576114946002826119ea565b949350505050565b60405162461bcd60e51b8152602060048201526012602482015271496e76616c69642067616d6520737461746560701b604482015260640161041d565b6000828152600160208190526040909120906001820154600160a01b900460ff16600481111561150b5761150b611766565b146115585760405162461bcd60e51b815260206004820152601c60248201527f47616d65206973206e6f7420696e20504c4159494e4720737461746500000000604482015260640161041d565b6001600160a01b038216611588576001810180546004919060ff60a01b1916600160a01b835b021790555061162e565b80546001600160a01b03908116908316036115b9576001810180546002919060ff60a01b1916600160a01b8361157e565b60018101546001600160a01b03908116908316036115ed576001810180546003919060ff60a01b1916600160a01b8361157e565b60405162461bcd60e51b8152602060048201526016602482015275496e76616c69642077696e6e6572206164647265737360501b604482015260640161041d565b816001600160a01b0316837f1f4228e2d0d405e34ac2a1c4b6f47f3ccdaf187bc2d09d151654d399be40d4ad8360010160149054906101000a900460ff166040516116799190611886565b60405180910390a3505050565b6040518061012001604052806009906020820280368337509192915050565b6001830191839082156117285791602002820160005b838211156116f957835183826101000a81548160ff021916908360ff16021790555092602001926001016020816000010492830192600103026116bb565b80156117265782816101000a81549060ff02191690556001016020816000010492830192600103026116f9565b505b50611734929150611738565b5090565b5b808211156117345760008155600101611739565b60006020828403121561175f57600080fd5b5035919050565b634e487b7160e01b600052602160045260246000fd5b6005811061179a57634e487b7160e01b600052602160045260246000fd5b9052565b6001600160a01b0388811682528716602082015260e081016117c3604083018861177c565b6060820195909552921515608084015290151560a083015260ff1660c0909101529392505050565b6101208101818360005b600981101561181757815160ff168352602092830192909101906001016117f5565b50505092915050565b60006020828403121561183257600080fd5b81356001600160a01b038116811461184957600080fd5b9392505050565b6000806040838503121561186357600080fd5b82359150602083013560ff8116811461187b57600080fd5b809150509250929050565b6020810161034b828461177c565b634e487b7160e01b600052601260045260246000fd5b600060ff8316806118bd576118bd611894565b8060ff84160691505092915050565b634e487b7160e01b600052601160045260246000fd5b6000600182016118f4576118f46118cc565b5060010190565b634e487b7160e01b600052603260045260246000fd5b600060ff821660ff8103611927576119276118cc565b60010192915050565b60208082526025908201527f596f75206861766520616c72656164792077697468647261776e20746865207060408201526472697a652160d81b606082015260800190565b600060ff83168061198857611988611894565b8060ff84160491505092915050565b60ff81811683821602908116908181146119b3576119b36118cc565b5092915050565b60ff818116838216019081111561034b5761034b6118cc565b808202811582820484141761034b5761034b6118cc565b6000826119f9576119f9611894565b50049056fea2646970667358221220691cfa96245477436dd113373c40cc13425274489eb7b4a675c9b0331ff4527264736f6c63430008110033",
  "devdoc": {
    "author": "Lulox",
    "details": "Currently for using with one transaction per move,      in a future may be replaced with signatures  or other gas efficient mechanism",
    "kind": "dev",
    "methods": {},
    "title": "TicTacToe",
    "version": 1
  },
  "userdoc": {
    "kind": "user",
    "methods": {},
    "notice": "A betting TicTacToe contract.",
    "version": 1
  },
  "storageLayout": {
    "storage": [
      {
        "astId": 5,
        "contract": "contracts/TicTacToe.sol:TicTacToe",
        "label": "gameIdCounter",
        "offset": 0,
        "slot": "0",
        "type": "t_uint256"
      },
      {
        "astId": 36,
        "contract": "contracts/TicTacToe.sol:TicTacToe",
        "label": "games",
        "offset": 0,
        "slot": "1",
        "type": "t_mapping(t_uint256,t_struct(Game)31_storage)"
      }
    ],
    "types": {
      "t_address": {
        "encoding": "inplace",
        "label": "address",
        "numberOfBytes": "20"
      },
      "t_array(t_uint8)9_storage": {
        "base": "t_uint8",
        "encoding": "inplace",
        "label": "uint8[9]",
        "numberOfBytes": "32"
      },
      "t_bool": {
        "encoding": "inplace",
        "label": "bool",
        "numberOfBytes": "1"
      },
      "t_enum(GameState)11": {
        "encoding": "inplace",
        "label": "enum TicTacToe.GameState",
        "numberOfBytes": "1"
      },
      "t_mapping(t_uint256,t_struct(Game)31_storage)": {
        "encoding": "mapping",
        "key": "t_uint256",
        "label": "mapping(uint256 => struct TicTacToe.Game)",
        "numberOfBytes": "32",
        "value": "t_struct(Game)31_storage"
      },
      "t_struct(Game)31_storage": {
        "encoding": "inplace",
        "label": "struct TicTacToe.Game",
        "members": [
          {
            "astId": 13,
            "contract": "contracts/TicTacToe.sol:TicTacToe",
            "label": "player1",
            "offset": 0,
            "slot": "0",
            "type": "t_address"
          },
          {
            "astId": 15,
            "contract": "contracts/TicTacToe.sol:TicTacToe",
            "label": "player2",
            "offset": 0,
            "slot": "1",
            "type": "t_address"
          },
          {
            "astId": 18,
            "contract": "contracts/TicTacToe.sol:TicTacToe",
            "label": "state",
            "offset": 20,
            "slot": "1",
            "type": "t_enum(GameState)11"
          },
          {
            "astId": 20,
            "contract": "contracts/TicTacToe.sol:TicTacToe",
            "label": "bet",
            "offset": 0,
            "slot": "2",
            "type": "t_uint256"
          },
          {
            "astId": 22,
            "contract": "contracts/TicTacToe.sol:TicTacToe",
            "label": "player1Withdrawn",
            "offset": 0,
            "slot": "3",
            "type": "t_bool"
          },
          {
            "astId": 24,
            "contract": "contracts/TicTacToe.sol:TicTacToe",
            "label": "player2Withdrawn",
            "offset": 1,
            "slot": "3",
            "type": "t_bool"
          },
          {
            "astId": 28,
            "contract": "contracts/TicTacToe.sol:TicTacToe",
            "label": "board",
            "offset": 0,
            "slot": "4",
            "type": "t_array(t_uint8)9_storage"
          },
          {
            "astId": 30,
            "contract": "contracts/TicTacToe.sol:TicTacToe",
            "label": "moves",
            "offset": 0,
            "slot": "5",
            "type": "t_uint8"
          }
        ],
        "numberOfBytes": "192"
      },
      "t_uint256": {
        "encoding": "inplace",
        "label": "uint256",
        "numberOfBytes": "32"
      },
      "t_uint8": {
        "encoding": "inplace",
        "label": "uint8",
        "numberOfBytes": "1"
      }
    }
  }
}